:020000040001F9
:10600000F0380020ED610100076201000962010023
:106010000000000000000000000000000000000080
:106020000000000000000000000000000B62010002
:1060300000000000000000000D6201000F6201007E
:106040001162010011620100116201001162010080
:106050001162010000000000B1A401001162010002
:106060001162010011620100116201001162010060
:106070001162010011620100116201001162010050
:1060800011620100AB99010011620100116201006F
:10609000CD990100116201004BA1010011620100C4
:1060A0001162010011620100000000000000000008
:1060B00000000000000000000000000000000000E0
:1060C00000F002F800F026F80CA030C808382418B8
:1060D0002D18A246671EAB4654465D46AC4201D120
:1060E00000F018F87E460F3E0FCCB646012633422C
:1060F00000D0FB1AA246AB4633431847305100008C
:10610000405100001FB50098019904F0B6FD1FBD75
:1061100010B510BD04F030FE1146FFF7F3FF00F09C
:10612000B6FC04F062FE03B4FFF7F2FF03BC04F018
:10613000C7FE0000401E00BF00BF00BF00BF00BF81
:1061400000BF00BF00BF00BF00BF00BF00BFF1D154
:1061500070470000401E00BF00BF00BF00BF00BF6F
:1061600000BF00BF00BF00BF00BF00BF00BFF1D134
:1061700070470000401E00BF00BF00BF00BF00BF4F
:1061800000BF00BF00BF00BF00BF00BF00BFF1D114
:1061900070470000401E00BF00BF00BF00BF00BF2F
:1061A00000BF00BF00BF00BF00BF00BF00BFF1D1F4
:1061B0007047000070B505460C46164602E00FCC4D
:1061C0000FC5103E102EFAD2082E02D303CC03C501
:1061D000083E042E07D301CC01C5361F03E0217809
:1061E0002970641C6D1C761EF9D270BD03210C4809
:1061F00002680A4302600B4802680A4302600A48C8
:1062000080470A480047FEE7FEE7FEE7FEE7FEE7B5
:10621000FEE7000006480749074A084B70470000A0
:106220002405004054050040E5620100C160010002
:10623000F0280020F0380020F0300020F03000205E
:1062400032483349086070473248008CC0B2012898
:1062500012D13048808C0007000F00280CD12D4847
:10626000806AF0210840402806D12A48C06A0840C8
:10627000002801D1012070470020FCE72548008C50
:10628000C0B201282CD12348808C0007000F0028C1
:1062900026D12048806AF0210840002806D11D48F8
:1062A000C06A0840002801D1012070471948806A5F
:1062B000F0210840102806D11648C06A084000287E
:1062C00001D10120F1E71348806AF021084030280D
:1062D00006D11048C06A0840002801D10120E4E737
:1062E0000020E2E710B5FFF7C9FF002805D00A48F3
:1062F0000A494860C8130A498861FFF7A5FF0028CA
:1063000002D001200749886010BD00000024F4007D
:1063100000200020C00F00F0DFFF07C00005004094
:10632000006C00400006004000BFBFF34F8FFD48E7
:10633000FD49C860BFF34F8F00BF00BFFEE7F8B54F
:10634000064605E0F949F82001F077FBF8490870A6
:10635000F74800780028F5D0002005E0F349095CF3
:10636000F44A1154411CC8B21428F7DB1425F24832
:1063700005802A46EF49F14800F0A0FF0020EC49D3
:106380000870EF480278EF49EF4801F042F8EF4912
:106390000860EF48007800282ADDEE48007804F015
:1063A000E8FB0746E9480168384604F047FE1FD27B
:1063B000E648006804F099FBC7B23946DF4800F0B0
:1063C00064FF0446002C11D112200123834019469A
:1063D000E14B5B68C340DA07D20F002A02D1DE4BE3
:1063E000996001E0DC4BD96000BF00BFDB4804606E
:1063F000F8BD03460C4622461946D948FFF794FFDC
:1064000010B5122000F079FB132000F076FB12206B
:1064100000F073FB10BD38B500BFD248D24B052247
:1064200003210090002003F0D5FA054600BF2B465B
:10643000002B05D000BFCDA2DC211846FFF774FF6A
:1064400000BF00BFCC4A0121CC4803F040FB04460A
:1064500000BF2346002B05D000BFC4A2E12118468F
:10646000FFF762FF00BF38BD3EB500BF6846007849
:1064700001090901491C009168460078F021884310
:106480001030009000BF0D22BDA168467CDF04469D
:1064900000BF2346002B05D000BFB4A2F62118464A
:1064A000FFF742FF00BF0020019002905021684694
:1064B0008180A021C18000210181FF219131418192
:1064C00001A87ADF044600BF2346002B06D000BF98
:1064D000A6A2FF2101311846FFF726FF00BF3EBDEF
:1064E00010B59EB005210191A9480068009093481D
:1064F0002030817A68468170382110A804F043FA70
:10650000022110A8017001218170818001A91291DE
:10651000382102A804F037FA01216846018469464F
:10652000099102A910A802F0FFFC044600BF23460F
:10653000002B06D000BF8DA2FF2120311846FFF7A7
:10654000F3FE00BF1EB010BD824A11700122804BC5
:106550001A70704738B58F4800906946774800F048
:1065600035FE044600BF2346002B06D000BF7FA2A5
:10657000FF2141311846FFF7D7FE00BF38BD1E206E
:10658000854908800846807840084000401C887093
:1065900008468078022188437F49887008468078C1
:1065A0001C2188430C307C49887008468078202163
:1065B0008843794988700720C87010200871704797
:1065C00070B505462878002810D13B217348008813
:1065D00076DF044600BF2346002B06D000BF63A22F
:1065E000FF2164311846FFF79FFE00BF70BD0346D0
:1065F00000BF5EA2FF216F311846FFF795FE10B570
:1066000088B01C2101A804F0BEF9002001900520EB
:106610004004029080100390032168460174002119
:10662000418201755E4806905E48079001A803F01C
:10663000B6FB044600BF2346002B06D000BF4BA28A
:10664000FF2186311846FFF76FFE00BF08B010BD6E
:1066500010B586B0142101A804F095F90021684610
:106660000171002002906846017340218182B421AB
:10667000C18201A873DF044600BF2346002B06D069
:1066800000BF3AA2FF21A3311846FFF74DFE00BF1D
:10669000122000F03BFA06B010BDF8B50546288878
:1066A00014283ED006DC10280BD0112822D0132845
:1066B0007AD17FE0172878D0192877D05228F7D1DF
:1066C0008BE0132000F022FA122000F024FAA888B0
:1066D0003249088003F03BFE044600BF2346002BEE
:1066E00006D000BF21A2FF21BA311846FFF71CFED9
:1066F00000BFDBE0132000F00EFA0020C043274962
:10670000088003F030FE044600BF2346002B06D06D
:1067100000BF16A2FF21C2311846FFF705FE00BFD9
:1067200045E073E00400FA0500ED00E0642100207C
:10673000252000205C22002026200020302100207F
:1067400012200020142000201320002018200020F8
:10675000242000201C2000200005005020200020C4
:10676000EFBEADDE216B0100702200202E2E5C6D8D
:1067700061696E2E630000003F6301000C20002061
:1067800053656E696F722044657369676E0000001F
:1067900014B2010049650100042000200A200020F5
:1067A000C1650100EF6501007FE029E059E0FFF7D6
:1067B0004FFF7BE0F74A0021F74800887FDF04465F
:1067C00000BF2346002B06D000BFF44AFF21CB3187
:1067D0001846FFF7A9FD00BF68E000221146EE4809
:1067E0000088A9DF044600BF2346002B06D000BF67
:1067F000EA4AFF21D0311846FFF796FD00BF55E069
:106800003222A91DE64804F05FF84FE0E44EB61DC1
:106810003188E889814211D100223146DE48008862
:1068200081DF044600BF2346002B06D000BFDB4AB1
:10683000FF21DC311846FFF777FD11E000221146F9
:10684000D548008881DF044600BF2346002B06D0D0
:1068500000BFD24AFF21E2311846FFF765FD00BFB5
:1068600024E0A87900281FD1122000F054F910214B
:1068700003200090009A120483001A4305231B078B
:1068800007273F02DB198F00DA5100BF34DF0446CF
:1068900000BF2346002B06D000BFC04AFF21F231C3
:1068A0001846FFF741FD00BF00E000BF00BFF8BD84
:1068B00010B504462046FFF7F0FE204603F043FBE8
:1068C0002146B84800F0ECF910BD10B5044620464A
:1068D00001F00CFD10BD38B500BF00235022B249B5
:1068E000082003F0EAFB054600BF2B46002B05D02D
:1068F00000BFAA4AAD491846FFF716FD00BF00BF0A
:10690000002000900090684660DF044600BF2346E8
:10691000002B06D000BFA14A4521C9001846FFF749
:1069200003FD00BFA24871DFA149002070DFA1482C
:1069300003F0F9FB044600BF2346002B06D000BF3E
:10694000964A9A490E311846FFF7EEFC00BF9A4866
:1069500003F0F2FB044600BF2346002B06D000BF25
:106960008E4A924912311846FFF7DEFC00BF38BD4F
:1069700010B500BF914A0A21082002F01DFB044611
:1069800000BF2346002B06D000BF844A87491A3136
:106990001846FFF7C9FC00BF00BF10BD70B5054623
:1069A0000E46112D18D131467E4800F057FC0446A2
:1069B000002C10D0824884420DD0082C0BD000BF90
:1069C0002346002B06D000BF744A78492A31184666
:1069D000FFF7AAFC00BF06E000BF704A25210901AD
:1069E0002846FFF7A1FC00BF70BD10B500BF754978
:1069F000012003F0DDFD044600BF2346002B06D036
:106A000000BF664A694938311846FFF78DFC00BF60
:106A100000BF10BD10B500BF6B4B6C4A02216C4823
:106A200003F053FC044600BF2346002B06D000BFF2
:106A30005A4A5E4948311846FFF776FC00BF00BF4E
:106A400010BD10B500220121C9036248006803F09F
:106A500085F8044600BF2346002B06D000BF4F4AEE
:106A6000524952311846FFF75FFC00BF10BD10B508
:106A700040DF044600BF2346002B06D000BF474A34
:106A80009F2189001846FFF74FFC00BF10BD08B5D5
:106A900000F01DFD00200D230A220921009008208E
:106AA00001F0DAF900F0A4FE032001F0A9F800F0EB
:106AB0009FFE00F0C3FE00F0EAFEFFF7A1FCFFF727
:106AC000AAFCFFF792FFFFF7A5FFFFF704FFFFF710
:106AD0004FFFFFF7C9FCFFF73DFDFFF701FDFFF793
:106AE0008EFDFFF74CFDFFF7ACFFFFF7B1FD00BFD8
:106AF00002F024FBFFF7BBFFFAE703210522120790
:106B000007231B02D2188300D15070470121814016
:106B1000314A91607047012181402F4AD16070470E
:106B20007CB504460D46009401952C4A0821684620
:106B300002F063FA7CBD7CB504460D46164600940F
:106B4000684605714671264A082102F056FA7CBD56
:106B500070B504460D46264600BF082D01D1012020
:106B600000E000200346002B05D100BF1DA2FF213D
:106B70001B31FFF7D9FB00BF31687068884770BDD3
:106B800070B505460E462C4600BF082E44D10120A4
:106B900043E00000042000200A2000206C67010070
:106BA000B024002030210020E42400202102000035
:106BB00028200020B1680100CB68010034250020A6
:106BC00002300000E4250020376B0100660600005B
:106BD000302000200C20002000050050516B0100E7
:106BE000816B01002E2E5C2E2E5C2E2E5C2E2E5CD8
:106BF0002E2E5C2E2E5C496E636C7564655C617034
:106C0000705F636F6D6D6F6E5C6170705F74696DE6
:106C100065722E680000000000200346002B04D19E
:106C200000BF05A2A821FFF77FFB00BF6179207993
:106C30002268904770BD00002E2E5C2E2E5C2E2EFA
:106C40005C2E2E5C2E2E5C2E2E5C496E636C756461
:106C5000655C6170705F636F6D6D6F6E5C617070AD
:106C60005F627574746F6E2E680000008A8882857A
:106C700070470022D2438285704770B504460E46A5
:106C8000B51D2888618B884209D1288B012806D13F
:106C9000206B002803D0A97E2046226B904770BD50
:106CA00070B505460C462088102804D0112807D05E
:106CB00050280FD109E021462846FFF7D7FF0AE008
:106CC00021462846FFF7D5FF05E021462846FFF775
:106CD000D4FF00E000BF00BF70BD10B590B0044607
:106CE0000020089000BF08A8007801090901491C8C
:106CF00008A801700078F0218843103008A90870B6
:106D000000BF00BF08A8407801090901491C08A874
:106D100041704078F0218843103008A9487000BFC6
:106D200008A8807806218843811C08A881701C214E
:106D300009A803F028FE08A800791021884301461D
:106D400008A80171007902218843014608A8017151
:106D5000007908218843411808A8017100200A9091
:106D60000C900D9008A80E9000200F902A20015D35
:106D700068468172FE4901810020019000BF68468B
:106D8000007901090901491C684601710079F02167
:106D9000884310306946087100BF00BF68464079DB
:106DA00001090901491C684641714079F021884375
:106DB00010306946487100BF6846807906218843D3
:106DC000811C6846817180790821884301466846A4
:106DD00081718079102188430146684681718079EC
:106DE0004108490068468171142103A803F0CBFDD6
:106DF00002A8039001A80490012168468182002125
:106E0000C1820121018300200790208823461A3384
:106E100003AA09A9A2DF10B010BD10B590B00446B6
:106E20000020089000BF08A8007801090901491C4A
:106E300008A801700078F0218843103008A9087074
:106E400000BF00BF08A8407801090901491C08A833
:106E500041704078F0218843103008A9487000BF85
:106E600008A8807806218843811C08A881701C210D
:106E700009A803F088FD08A800791021884341186B
:106E800008A80171007902218843014608A8017110
:106E9000007908218843014608A8017100200A9062
:106EA0000C900D9008A80E9000200F902A20015DF4
:106EB00068468172AE49491C01810020019000BFE3
:106EC0006846007901090901491C68460171007989
:106ED000F021884310306946087100BF00BF684642
:106EE000407901090901684641714079F0218843E0
:106EF0006946487100BF6846807906218843811C35
:106F0000684681718079082188430146684681710D
:106F10008079102188430146684681718079410853
:106F2000490068468171142103A803F02CFD02A8D2
:106F3000039001A804900121684681820021C1824A
:106F4000142101830020079020882346223303AABE
:106F500009A9A2DF10B010BD10B590B00446002002
:106F6000089000BF08A8007801090901491C08A879
:106F700001700078F0218843103008A9087000BF24
:106F800000BF08A8407801090901491C08A8417000
:106F90004078F0218843103008A9487000BF08A845
:106FA000807806218843811C08A881701C2109A8CB
:106FB00003F0E9FC08A8007910218843411808A8CB
:106FC0000171007902218843811C08A801710079B0
:106FD00008218843014608A8017100200A900C90FE
:106FE0000D9008A80E9000200F902A20015D6846A1
:106FF00081725F49491E01810020019000BF6846EF
:10700000007901090901491C684601710079F021E4
:10701000884310306946087100BF00BF6846407958
:1070200001090901684641714079F02188436946A8
:10703000487100BF6846807906218843811C6846F4
:107040008171807908218843014668468171807981
:1070500010218843014668468171807941084900C2
:1070600068468171142103A803F08DFC02A80390E7
:1070700001A804900121684681820021C18201217A
:107080000183002007902088A31C03AA09A9A2DF7E
:1070900010B010BD10B590B004460020089000BF9D
:1070A00008A8007801090901491C08A801700078A6
:1070B000F0218843103008A9087000BF00BF08A85D
:1070C000407801090901491C08A841704078F02165
:1070D0008843103008A9487000BF08A880780621AE
:1070E0008843811C08A881701C2109A803F04BFC6F
:1070F00008A8007902218843811C08A80171007941
:1071000010218843411808A8017100200A900C90B2
:107110000D9008A80E9000200F902A20015D68466F
:1071200081721349891E01810020019000BF6846C9
:10713000007901090901491C684601710079F021B3
:10714000884310306946087100BF00BF6846407927
:1071500001090901684641714079F0218843694677
:10716000487100BF6846807906218843811C01E090
:107170002615000068468171807908218843014600
:107180006846817180791021884301466846817183
:1071900080794108490068468171142103A803F0F1
:1071A000F2FB02A8039001A80490012168468182A5
:1071B0000021C182012101830020079020882346FD
:1071C0000A3303AA09A9A2DF10B010BD70B586B0BA
:1071D00005460E460020C043A88530682863444B0E
:1071E0000FCB01AC0FC429462A3101A863DF044646
:1071F000002C02D0204606B070BD2A20415D6846B2
:1072000081753C4981822A4605A90120A0DF0446F8
:10721000002C01D02046EEE72846FFF73BFF04464E
:10722000002C01D02046E6E72846FFF795FE0446ED
:10723000002C01D02046DEE72846FFF74EFD04462D
:10724000002C01D02046D6E72846FFF7E6FD04468D
:10725000002C01D02046CEE70020CCE713B586B045
:1072600004460121019100200290039004900590B2
:10727000684681726189018107A8059001A8049080
:10728000A08D02A9A6DF08B010BD33B585B00446B5
:107290000121009100200190029003900490684623
:1072A00081716188818006A8049068460390A08D52
:1072B00001A9A6DF0546284607B030BDF0B585B068
:1072C00004460D46174604210091002001900290CB
:1072D00003900490618C684681800495039001219D
:1072E0008171A08D01A9A6DF0646304605B0F0BD2C
:1072F00018B201002315000008B5012000900023FA
:1073000001224D49902000F0FBF9002808D001230C
:107310001A466946912000F0F3F9002800D1009048
:107320006846007808BD38B50124FFF7E5FF05463B
:10733000002D0FD0E807C00F00280CD101216846AE
:1073400001704170012302226946902000F0D8F9B3
:10735000044000E00024204638BDF8B504460D4640
:107360000026002E11D1012302226946912000F04F
:10737000C7F9002808D06846007840B220706846F7
:10738000407840B22870012600BF01263046F8BD83
:10739000F0B58BB004460D4616467B20C00509901B
:1073A00026480890217808A8017229784172007A4D
:1073B000059008A8407A049080210598084000288C
:1073C00006DD08A8007A0F2109024018C0B2059016
:1073D0000598000103900498071103983843029020
:1073E000029803F0BEFB0190099903F051FE07904B
:1073F0000899079803F04CFE21214906019003F0FB
:10740000D7FD0690002E02D007980BB0F0BD06986D
:10741000FBE7F8B504460D46164629462046FFF719
:107420009CFF0746002F05D0324629462046FFF72D
:10743000AFFF00900098F8BD29B20100EE65E63F6D
:1074400070B500BF01204006CD49886000BF00BF75
:107450004010886000BF0420FEF76CFEC848006939
:107460008001C00F002807D0C5480069C001C00FC7
:10747000002801D0012428E0C1480069C001C00FE4
:10748000002821D00024122519E000BF01200006A9
:10749000BB49C86000BF0420FEF74CFE00BF0120BE
:1074A0000006B749886000BF0420FEF743FEB448D9
:1074B00000698001C00F002801D0012403E02846A4
:1074C0006D1E0028E1D100E00024204670BD10B5FB
:1074D00000BFAC4805210907072212028918486637
:1074E00000BF00BF052109078918086600BF00BF5B
:1074F00001200006A249886000BF00BF886100BF6C
:1075000000BF4000886000BF00BF886100BFFFF778
:1075100097FF10BD10B500BF012000069849886094
:1075200000BF0420FEF706FE00BF95480069C001B9
:10753000C00F0028F9D0012010BD10B500BF0120F8
:1075400040068F49C86000BF0420FEF7F3FDFFF737
:10755000E1FF002800D110BD00BF0120400688498E
:10756000886000BF0420FEF7E5FD0120F3E770B559
:107570000646012400BF60068149886100BF80255E
:107580001FE000BF012000067D49C86000BF042045
:10759000FEF7D0FD30462840002805D000BF01206E
:1075A00040067749886005E000BF01204006744925
:1075B000C86000BFFFF7AEFF002801D1002402E041
:1075C0006D08002DDDD100BF00BF012000066C4911
:1075D000C86000BF0420FEF7ADFD00BF01204006DB
:1075E0006749C86100BF0420FEF7A4FDFFF792FFC2
:1075F000044063480069400E01214840044000BF38
:1076000008065F49C86000BF0420FEF793FD00BF75
:10761000012040065A49886100BF204670BDF8B578
:1076200005460E4600270120009000BF4006544941
:10763000C86100BF802418E0FFF76CFF002801D16B
:10764000009014E04E4800698001C00F002802D06D
:1076500038462043074600BF012000064849C8605D
:1076600000BF0420FEF766FD6408002CE4D100BFD3
:1076700000BF012040064249886100BF2F70002EE4
:1076800002D000BFC86005E000BF012040063C49B1
:10769000886000BF0420FEF74DFDFFF73BFF002888
:1076A00000D1009000BF012000063549C86000BF2E
:1076B0000420FEF73FFD0098F8BD10B500BF012083
:1076C00040062F49886000BF0420FEF733FDFFF716
:1076D00021FF002800D110BD00BF0120400628492D
:1076E000C86000BF0420FEF725FD00BF0120000692
:1076F0002349C86000BF0420FEF71CFD0120EAE713
:10770000FFB581B007460D4616460124FFF7D5FFA9
:1077100004403846FFF72BFF0440F807C00F00284D
:1077200016D00DE0002E05D100212846FFF777FF87
:10773000044004E001212846FFF771FF04406D1C5E
:107740003046711ECEB200280FD0002CEAD10CE0DA
:1077500004E02878FFF70BFF04406D1C3046711ED3
:10776000CEB2002801D0002CF3D10498002801D11A
:10777000002C02D1FFF7E1FE0440204605B0F0BD29
:10778000000500500C06000031B5122000F00CFB83
:10779000FE49009803F07CFC054603F0A6F9044678
:1077A0002046FEF7D7FC122000F003FB38BD1FB5C2
:1077B000122000F0F9FA132000F0F6FA00240BE092
:1077C00000F004FB694608556846005DF049095D14
:1077D000884201D1601CC4B20F2CF1DBED48FFF7E9
:1077E000D3FF122000F0E5FA132000F0E2FA1FBDEB
:1077F0001CB5122000F0D8FA562000F012FB002031
:1078000000F00FFB262000F00CFB002000F009FB2D
:1078100000240BE000F0DAFA694608556846005D7E
:10782000DD49095D884201D1601CC4B2052CF1DB41
:10783000FFF7BDFF122000F0BCFA1CBD1CB51220E2
:1078400000F0B2FA562000F0ECFA002000F0E9FA5D
:10785000362000F0E6FA012000F0E3FA002000F004
:10786000E0FA00240DE000F0B1FA694608556846D8
:10787000005DCA49095D884201D000BFFEE7601C77
:10788000C4B2052CEFDB122000F093FA1CBD3EB50C
:10789000122000F089FA562000F0C3FA002000F010
:1078A000C0FA342000F0BDFA012000F0BAFA00203E
:1078B00000F0B7FA00240DE000F088FA6946085598
:1078C0006846005DB649095D884201D000BFFEE709
:1078D000601CC4B2072CEFDB00F078FA6946C8716F
:1078E00000F074FA014668460172C07901026846E8
:1078F000007A0818AB490880122000F05AFA3EBD01
:1079000070B5002410E000F061FA0546FF2D02D1A9
:10791000601CC4B207E0012C04D1D82D02D1601C38
:10792000C4B200E0002400BF022CECDB70BD70B5D7
:10793000002410E000F04AFA0546FF2D02D1601C39
:10794000C4B207E0012C04D1D92D02D1601CC4B20D
:1079500000E0002400BF022CECDB70BD70B50024F9
:1079600000250EE000F032FA06468F48405DB04236
:1079700002D1601CC4B201E000250024681CC5B21D
:1079800000BF052CEEDB70BDF8B50446122000F0F8
:107990000BFA86490888C117090E091809040D0E4B
:1079A00082490888C117090E091809120902411AEB
:1079B000CEB22046E117090E091809040F0EE1178F
:1079C000090E091809120902611AC9B2009156205C
:1079D00000F027FA002000F024FA322000F021FA0B
:1079E0000C2000F01EFA002000F01BFA0A2000F024
:1079F00018FA002000F015FA002000F012FA2846CC
:107A000000F00FFA304600F00CFA002000F009FAFE
:107A1000002000F006FA384600F003FA009800F063
:107A200000FA002000F0FDF90A2000F0FAF95F48A2
:107A3000008800195D490880F8BDFEB505460E4670
:107A400029465848008802F0AAFF80B201902946D2
:107A50005448008802F0A3FF88B200902846FFF740
:107A600093FFFFF77BFF002704E000F0AFF9F0552C
:107A7000781CC7B2AF42F8DBFFF770FF0098002810
:107A800010DD0098FFF780FFFFF768FF002404E097
:107A900000F09CF93055601CC4B200988442F7DBBA
:107AA000FFF75CFF0120FEBDFEB50446132000F089
:107AB0007BF921463B48008802F071FF80B20190BB
:107AC00021463848008802F06AFF8EB2012135480D
:107AD000008802F0E3FE36490860122000F064F9E5
:107AE00000271BE02046FFF74FFFFFF737FF00207E
:107AF00000900CE000F06AF939466143009A891859
:107B00002B4A126850540098401CC0B20090009854
:107B1000A042EFDBFFF722FF781CC7B20198874233
:107B2000E0DB002E15DD3046FFF72EFFFFF716FFD6
:107B300000250AE000F04AF9014601986043401927
:107B40001B4A12681154681CC5B2B542F2DBFFF73C
:107B500005FF122000F02DF9132000F02AF9FEBDD8
:107B600010B5122000F020F9562000F05AF900203C
:107B700000F057F9362000F054F9012000F051F9D7
:107B8000032000F04EF9122014E0000000007A44B7
:107B90004C20002000803B455B200020602000201E
:107BA00065200020422000206C2000204020002082
:107BB0004420002000F0FDF810BD10B5122000F0A8
:107BC000F3F8562000F02DF9002000F02AF93120BA
:107BD00000F027F9052000F024F9012000F021F938
:107BE000012000F01EF9122000F01BF9042000F023
:107BF00018F9362000F015F9122000F0DAF810BD5F
:107C00007CB50546122000F0CFF8012D01D10026E9
:107C100006E0022D01D1112602E0032D00D122261B
:107C2000562000F0FEF8002000F0FBF8312000F0B4
:107C3000F8F8052000F0F5F8042000F0F2F8012033
:107C400000F0EFF8002000F0ECF8192000F0E9F85F
:107C5000304600F0E6F800240DE000F0B7F8694681
:107C600008556846005D5549095D884201D000BF4E
:107C7000FEE7601CC4B2052CEFDB122000F099F87F
:107C80007CBD70B50546122000F08EF8012D01D1A3
:107C9000012402E0002D00D10024562000F0C1F89C
:107CA000002000F0BEF83E2000F0BBF8032000F0FA
:107CB000B8F8002000F0B5F8012000F0B2F8204636
:107CC00000F0AFF8122000F074F870BD70B50646F1
:107CD000122000F069F8012E02D10D24A62512E031
:107CE000022E02D11C244C250DE0032E02D12A24A1
:107CF000F22508E0042E02D15624E42503E0052EE7
:107D000001D1AE24C825562000F08BF8002000F0E9
:107D100088F8242000F085F8032000F082F8012084
:107D200000F07FF8204600F07CF8284600F079F853
:107D3000122000F03EF870BD122000F03AF8132037
:107D400000F037F82FE0132000F02EF81C48FFF762
:107D50001BFD132000F02DF81948FFF715FD132027
:107D600000F022F81648FFF70FFD132000F021F86D
:107D70001448FFF709FD122000F016F81048FFF72D
:107D800003FD122000F015F80D48FFF7FDFC12204E
:107D900000F00AF80A48FFF7F7FC122000F009F893
:107DA0000848FFF7F1FCCEE701218140064A9160C7
:107DB000704701218140044AD16070477B20002038
:107DC000000096420000F0420005005000BF43480A
:107DD00080680128FBD100204049886040488069C4
:107DE000C0B2704770B504460D4601260AE0204631
:107DF000641E002804DB7D20C000FEF7BBF901E013
:107E0000002603E0354880680128F0D100BF002C2F
:107E100005DB002031498860314880692870304690
:107E200070BD2F49C86100BF2C49C9690129FBD128
:107E300000212A4AD161704730B503460025284603
:107E40006D1C1C5C05E02046FFF7EBFF28466D1C0F
:107E50001C5C002CF7D130BDF8B507460C46154622
:107E60001E46204600F027F80121304600F02CF88D
:107E70001B48C4604661069800280DD0384600F0C3
:107E80001AF80021284600F01FF8154805618760A0
:107E9000012013494031C862124811494862042048
:107EA000086001200D4908600F49886008600020C3
:107EB0000A498860F8BD03210522120707231B0227
:107EC000D2188300D150704710B58A0005231B07D4
:107ED000072424021B1984001A5110BD0021004000
:107EE0000025004000509D00002000400023142188
:107EF0004143FA4A53541421414389184B800223C9
:107F00001421414389188B600023142141438918AF
:107F1000CB601421414389180B6114214143891816
:107F20008B80704710B50020ED490880ED4908703E
:107F3000EA49091F087048708870002403E0204651
:107F4000FFF7D4FF641C1E2CF9D310BDFFB581B020
:107F5000054616461F460324E248007800280AD149
:107F6000002E05D1002F03D10220DE49087002E067
:107F70000120DC490870DB480078030003F00AF8B0
:107F8000076A050B273A47646A00002C02D10220D9
:107F9000D44908705FE0029820DF0446002C15D118
:107FA000002E10D1002F0AD12878042803D10720F1
:107FB000CC4908700AE00520CA49087006E0042090
:107FC000C849087002E00320C649087043E0002C4D
:107FD0000FD1002F0AD12878042803D10620C149E7
:107FE000087006E00520BF49087002E00420BD4982
:107FF000087030E0002C09D12878042803D106202D
:10800000B849087002E00520B649087023E0012055
:108010000007006980B2029B5843B300C01800906B
:10802000688882082969009821DF0446002C0AD15B
:10803000002E05D1002F03D10720AA49087002E0C5
:108040000620A849087006E0002C02D10720A549A7
:10805000087000E000BF00BF204605B0F0BDF0B5DD
:1080600085B00F279D48001F0078142148439B4985
:108070004418E5682078022804D0042823D0052875
:108080006FD16FE020690390954800888602608870
:10809000801B0490039880190390A08880194519CB
:1080A000012189020498884206D204988208284651
:1080B000039921DF074605E0FF2201322846039994
:1080C00021DF074676E0A068000187494018008953
:1080D0000490A0680001401840890390A068000146
:1080E0004018406802900298A84205D1039904986C
:1080F00048436188884202D0A06803280DD101203E
:108100000007006981B2284602F03FFC74490988E3
:108110004618304620DF074622E0012000070069AC
:1081200081B2284602F031FC0646012000070069B2
:1081300080B27043281A800801900120000700696E
:1081400080B2711C484361884919401A8008009028
:1081500031462046009B019AFFF7F8FE074600BF14
:1081600028E026E001200007006981B2284602F0DD
:108170000CFC0646A088411901200007006980B266
:108180007043081A80080490A0884019618842183A
:1081900001200007006980B2711C4843801A8008E2
:1081A000039031462046039B049AFFF7CFFE074613
:1081B00000E000BF00BF002F03D101204749091F85
:1081C0008870384605B0F0BDFFB581B00646174649
:1081D00000244248001F40781E2839D03F48001F25
:1081E00000783E49091F49784018C4B21E2C02DBB2
:1081F00020461E38C4B21420604338490E5414205F
:10820000604340180761142060434118029805C874
:10821000CA60886014206043304A80180499418005
:108220001420604380180A9981800025101F8078EF
:10823000002805D1FFF713FF0546112D00D10025B9
:108240002648001F4078401C2449091F487000E060
:108250000425284605B0F0BDF8B504461F48001FA8
:108260000078142148431D490E5C081F0078142132
:1082700048431A494018806800011B490D581748A7
:10828000001F007814214843144940184088091FF2
:108290000090097814225143104A89180B69111F64
:1082A0000978142251430D4A89180846083022469D
:1082B0003146A847F8BD10B500240848001F407893
:1082C000002809DDFFF7CBFE0446002C04D0112C5A
:1082D00002D02046FFF7C0FF204610BDFC2500203D
:1082E000942000209720002054280020FEB5054649
:1082F0000026FC48807801287ED10020F94988704A
:10830000F9480078082811D1022D03D10020F64940
:10831000087002E00020F5490870FFF7CCFF064620
:10832000002E02D03046FFF797FFFEBD022D02D08F
:10833000032D79D174E0EB48007814214843E949D2
:10834000091D4418EA480088401CE9490880207843
:10835000022807D10846008880026188884201DB34
:10836000012000E0002007462078052805D1DE48DE
:108370000078072801D1012000E000200290207839
:10838000042805D1D8480078072801D1012000E051
:1083900000200190207804280BD1D5480088800265
:1083A0006188884205DBD0480078002801D101208F
:1083B00000E0002000900298002807D101980028D2
:1083C00004D10098002801D1002F1FD00020C649F9
:1083D00008703046FFF740FFC2490878FFF786FD76
:1083E0000020C3490880BF484078401EBD494870FE
:1083F00008460078401C00E019E008700846007844
:108400001E2803DB084600781E380870FFF753FF6C
:108410000646002E02D03046FFF71EFF05E003E0BF
:108420000D20FFF719FF00E000BF00BF00BF00BF35
:108430007BE710B5FFF776FD0020AE490880AE4817
:108440004069401C002808D001221207126991B22D
:10845000A94A506902F099FA02E001200007406938
:10846000C01E01210907096989B24843A349086070
:1084700000209F49088000BF0DE000210201A04BB1
:1084800099500201D21811810201D2189181020182
:10849000D2185181401C0228EFD30820924908705D
:1084A000002C04D101208F49887090490870204623
:1084B00010BD70B5024600BF8C480078002801D17D
:1084C000082070BD00BF002A01D10E20F9E7002965
:1084D00001D10E20F5E71068002801D10E20F0E749
:1084E000908801252D072D69ADB2A84202DC908845
:1084F000102801DA0720E4E710798007800F0028B0
:1085000001D00720DDE77B480088022801D1042044
:10851000D7E7784800880860784800684860754D5B
:108520002D882D01764EAD1948686860714D2D88F3
:108530002D011068705190886E4D2D882D01AD1958
:108540002881D0886B4D2D882D01AD1968810024BC
:108550009388D5886B4300BF601C84B2012000075C
:10856000006980B2984205D201200007006980B2FC
:108570001B1A00E0002301200007006980B25F4D54
:108580002D6840195D4D286001200007006980B208
:108590009842E1D9574800880001594D401984811B
:1085A00054480088401C534D2880002089E73CB582
:1085B000034600BF4D480078002801D108203CBD8B
:1085C00000BF002B01D10E20F9E7002A01D10E20B7
:1085D000F5E71868022805D218680001484C2058B1
:1085E000002801D10720EAE75C6818680194009030
:1085F000019C18680001424D401900894843201829
:108600000190009800012C4600194089009C24012B
:10861000641924896043009C24016419646800196A
:10862000019CA04201D80720C9E7019C0098546032
:1086300010600020C3E7F8B504460E4615461F46F5
:1086400000BF2A480078002801D10820F8BD00BFEB
:10865000002E01D10E20F9E7002C01D10E20F5E704
:108660002068022805D22068000125490858002802
:1086700001D10720EAE7206800012149401840891C
:10868000216809011E4A891809894843216809019E
:108690008918496840186168884201D80720D5E7E1
:1086A000002D06D020680001154940180089A84215
:1086B00001DA0720CAE7E81921680901104A891878
:1086C0000989884201DD0720C0E7304600F064F9DF
:1086D000002804D0384600F05FF9002812D110209D
:1086E000B4E70000F8250020972000209620002005
:1086F000942000208C2000200010001090200020EA
:1087000054280020606800F047F9002801D11020AB
:108710009CE72B463246214602200097FFF754FD86
:1087200094E7F8B504460E4615461F4600BF9F481D
:108730000078002801D10820F8BD00BF002E01D12B
:108740000E20F9E7002C01D10E20F5E72068022861
:1087500005D22068000196490858002801D1072059
:10876000EAE7206800019249401840892168090120
:108770008F4A89180989484321680901891849687D
:1087800040186168884201D80720D5E7002D06D03F
:1087900020680001864940180089A84201DA0720B4
:1087A000CAE7E81921680901814A891809898842BC
:1087B00001DD0720C0E7304600F0EEF8002804D0C5
:1087C000384600F0E9F8002801D11020B4E76068CD
:1087D00000F0E2F8002801D11020ADE72B46324628
:1087E000214605200097FFF7EFFCA5E7FFB581B014
:1087F0000C4615461E4600BF6C480078002802D182
:10880000082005B0F0BD00BF002C01D10E20F8E714
:108810000198002801D10E20F3E72068022805D234
:108820002068000162490858002801D10720E8E7C4
:10883000206800015E4940184089216809015C4AAE
:10884000891809894843216809018918496840182D
:108850006168884201D80720D3E7002D06D0206840
:108860000001534940180089A84201DA0720C8E7EF
:10887000A819216809014E4A89180989884201DD31
:108880000720BEE7019800F087F8002804D03046A2
:1088900000F082F8002801D11020B2E7606800F0F3
:1088A0007BF8002801D11020ABE7606881192A46C7
:1088B000019802F009F80095206800013C490F5822
:1088C000002203212046019BB847002099E7F8B514
:1088D00004460D4600BF35480078002801D1082025
:1088E000F8BD00BF002C01D10E20F9E72068022856
:1088F00005D2206800012E490858002801D1072020
:10890000EEE7206800012A494018408921680901E2
:10891000274A891809894843216809018918496843
:1089200040186168884201D80720D9E7606800F0E4
:1089300033F8002801D11020D2E723681B011C4F17
:10894000DB1962685B68D01A226812013B46D218B4
:10895000118902F01AF8002901D00720C0E7002091
:108960002B460246214600900420FFF72DFC0646C8
:108970003046B5E7014600BF0C480078002801D119
:108980000820704700BF002901D10E20F9E70948EF
:10899000407808600020F4E701468807800F00282F
:1089A00001D1012070470020FCE700009620002044
:1089B00054280020F8250020F7B584B004460F465F
:1089C00006980678B01C1F2803DC6078801C1F28DE
:1089D00002DD0C2007B0F0BD1F20801B801E85B279
:1089E0000295B11C781802A97DDF03900398002836
:1089F00001D00398EEE72078022808D16846008964
:108A0000A84204DC09200190684605890BE0082093
:108A100001906078002804D06078A84201DC657875
:108A200001E068460589681CC2B23046711CCEB2AE
:108A30003A543046721CD6B20199395406980178DE
:108A4000A81C0818C1B2069801700020C2E7F8B54A
:108A500005460C462078001D1F2801DD0C20F8BDBE
:108A6000684679DF0646002E01D03046F7E703213D
:108A70002278501C2070A95419212278501C207093
:108A8000A954207841196846008800F08AFA2178B4
:108A9000401820700020E2E7F8B505460F4616465C
:108AA0001C466868002801D10720F8BD2078801C8A
:108AB000298840181F2801DD0C20F6E72878401C83
:108AC000C1B22278501C2070B1542178481C20700B
:108AD00077542A8823789819696801F0F5FE207880
:108AE0002978401820700020DFE730B50346107861
:108AF000C01C1F2801DD0C2030BD02241578681C25
:108B000010704C550A241578681C10704C55157857
:108B1000681C10704B550020EEE7FFB587B0064685
:108B20001D46109C0020069020780590002747E005
:108B3000B900706841180A886846028149884181F5
:108B4000002203A902A865DF04900498002802D03F
:108B500004980BB0F0BD6846017B099881422ED184
:108B60000698002801D0002000E002200190207823
:108B70006946097B4118019808181F2801DD0C205F
:108B8000E7E70698002809D12078401C2070227859
:108B9000511C08982170A854012006902078421991
:108BA00003A902A865DF04900498002801D0049866
:108BB000CFE720786946097B4018207000BF7F1CF2
:108BC0003088B842B4DC0698002806D02178059891
:108BD000401C081AC1B2059829540020B9E7FFB516
:108BE00081B0074615460A9E009602223846049B2D
:108BF0000299FFF792FF0446002C02D0204605B0F0
:108C0000F0BD0096102229463846049BFFF785FFE9
:108C10000446002C01D02046F1E70020EFE7014692
:108C20000888062808DB08881922D201904205DD51
:108C30000888E04A904201D00720704748880628FB
:108C400008DB48881922D201904205DD4888D94ABC
:108C5000904201D00720F0E70888D64A904208D019
:108C60004888904205D008884A88904201DD072054
:108C7000E3E70020E1E7F8B506460D461446207804
:108C8000801D1F2801D90C20F8BD3046FFF7C7FF13
:108C90000746002F01D03846F6E705212278501C00
:108CA0002070A95412212278501C2070A9542278D7
:108CB0005119308800F075F9217840182070227819
:108CC0005119708800F06DF921784018207000204B
:108CD000DAE7F8B505460E4614462879801CC7B277
:108CE0002078801CC0191F2801DD0C20F8BD781CDD
:108CF000C1B22278501C2070B154FF212278501C40
:108D00002070B15422789119288800F04AF921780E
:108D100040182070A88800280EDDA868002801D11E
:108D20000720E3E7AA8823789819A96801F0CCFD09
:108D300020782979401820700020D7E7FEB5074633
:108D40000E461446386B002801D10720FEBD0020D6
:108D5000019032E0396B0C22019850430D182879AC
:108D6000801CC0B200900098401CC1B22278501CF8
:108D70002070B15416212278501C2070B1542278F2
:108D80009119288800F00DF9217840182070A888E2
:108D900000280EDDA868002801D10720D6E7AA88A0
:108DA00023789819A96801F08FFD20782979401857
:108DB00020700198401CC0B201903420C15D019820
:108DC0008142C7DC0020C1E7F8B504460F461646CD
:108DD0000025002030702078002809D0324639461E
:108DE0002046FFF7E9FD0546002D01D02846F8BDD5
:108DF000A078002808D031463846FFF728FE0546FF
:108E0000002D01D02846F2E7A08800280ADD33466D
:108E10003A460121201DFFF73FFE0546002D01D0F7
:108E20002846E4E7E06800280BD00020E1680856F7
:108E300032463946FFF759FE0546002D01D0284637
:108E4000D5E7208A00280CDD3B4606220221204679
:108E500010300096FFF7C3FE0546002D01D02846CE
:108E6000C5E7208B00280CDD3B4607220321204666
:108E700018300096FFF7B3FE0546002D01D02846B6
:108E8000B5E7208C00280CDD3B4615221421204636
:108E900020300096FFF7A3FE0546002D01D028469E
:108EA000A5E7A06A002809D032463946A06AFFF734
:108EB000E2FE0546002D01D0284698E7E06A00282A
:108EC00009D032463946E06AFFF703FF0546002D18
:108ED00001D028468BE73420005D002809DD3246AA
:108EE00039462046FFF72AFF0546002D01D02846C7
:108EF0007DE728467BE701468888002808D08868F7
:108F0000002805D08868007804221040002801D18C
:108F1000072070470020FCE701468888002801DD13
:108F2000072070470020FCE7F3B593B00D46002101
:108F3000129111911398002814D01398FFF7DBFFBA
:108F40000446002C02D0204615B0F0BD12AA09A993
:108F50001398FFF739FF0446002C01D02046F3E7B1
:108F600009AE00E00026002D13D02846FFF7D4FFFD
:108F70000446002C01D02046E6E711AA01A92846A4
:108F8000FFF722FF0446002C01D02046DCE701AFAA
:108F900000E0002710A803793A46017A304672DFD4
:108FA000D2E702460A70FF2000021040001248700B
:108FB00002207047FFFF000030B50346481CC00484
:108FC000040C10468507AD0F002D01D1012500E0EE
:108FD0000025002D01D1072030BD7A48026010190C
:108FE000794D28600020794D2870794D2870794896
:108FF0000380794801800020EEE7F7B584B00C4685
:109000007448008884426BDC744D0020039000F0AB
:10901000A4F802900298012814D003A82EDF074676
:10902000022F01D172B60CE000BF0197019F002F03
:1090300006D000BF6AA259210198FDF775F900BF5B
:1090400000BF00BF6148007800F0B1F860490978BE
:10905000884206D05D480578007800F0A8F85B49A2
:1090600008700298012814D062B66846007B2FDF92
:109070000746022F0CD000BF0197019F002F06D09A
:1090800000BF57A261210198FDF74EF900BF00BF54
:1090900000BF5248854221D0E9004A4A069812682A
:1090A00050500498002811D0002C0FDD4949098840
:1090B0006943454A126888182246049901F004FC65
:1090C000E800404909684018848005E00020E90074
:1090D0003C4A126889188880002600E0042600E0D7
:1090E0000926304607B0F0BDF8B505460E461746CE
:1090F00005200090354800783549097888421BD012
:1091000033480478007800F052F83149087031484B
:10911000008860432C49096840182860E00029490C
:109120000968401880883080E0002649096808589E
:1091300038600020009000BF0098F8BD0EB504E034
:1091400068468188009A029890476A4601A902A859
:10915000FFF7CAFF0028F3D00EBD10B524484068C1
:10916000C105C90D002920D00A46103A50B2002886
:109170000DDA1F4B1C330407240F083CA408A4007D
:109180001B598407E40EE3401B069B0F0BE0194BB1
:10919000032424021B198408A4001B598407E40E2D
:1091A000E3401B069B0FD8B210BD0420FCE701462C
:1091B00009480088814201DA481C00E00020C0B262
:1091C00070470000982000209C200020A120002053
:1091D000A0200020A2200020A4200020FFFF0000EB
:1091E0006170705F7363686564756C65722E63008F
:1091F00000ED00E000E100E010B5002819DAFB4ABC
:1092000003071B0F083B9B089B00D2588307DC0E0B
:10921000FF23A3409A438B071B0E8407E40EA34051
:109220001A43F24B0407240F083CA408A4001A5167
:1092300018E0EF4A03231B02D21883089B00D25880
:109240008307DC0EFF23A3409A438B071B0E840782
:10925000E40EA3401A43E64B032424021B1984089E
:10926000A4001A5110BD10B50446E24884600321E1
:109270001120FFF7C1FF10BD10B501200004DE4929
:109280004860DD4940394860112000F0E3FC1120BE
:1092900000F0D2FC0120D94908602F20FCF77AFFAA
:1092A0000120D749087010BD10B51120012181405F
:1092B000CF4A8032116000BF01200004CE4988608F
:1092C000CD49403988600120CC4948602F20FCF707
:1092D00061FF0120C94988600020CA4908602F2029
:1092E000FCF758FF0020C649087010BDF0B50246D3
:1092F00024205043C44B1B68C118C4480068401C5C
:10930000002802D1C148026059E0C0484B6800689B
:1093100024246043BC4C246800194068834217D859
:10932000BA48006824235843B74B1B68C0184068EC
:109330004B68C31AB548006824246043B24C2468C3
:1093400000194360B14800680862B048026036E026
:109350004B68AE4D2C6828680DE024254543AA4E85
:109360003668AD196D685B1B044624254543A64E3F
:109370003668AD19286A451C002D07D024254543C1
:10938000A14E3668AD196D689D42E6D3451C002D8F
:109390000CD0242545439C4E3668AD196D68EE1AF5
:1093A00024254543984F3F68ED196E604B60086275
:1093B00024256543944E3668AD192A6200BFF0BD7E
:1093C000F8B50646914805682C4609E0B44200D13C
:1093D00009E02546242060438B4909684018046A47
:1093E000601C0028F2D100BF601C002800D1F8BD2D
:1093F000A54210D185480068242148438249096864
:109400004018006A8149086008460068401C00282E
:1094100001D1FFF749FF242060437B4909684018C8
:10942000476824206043784909684018016A24206D
:109430006843754A126880180162242068437249A3
:1094400009684018046A601C00280CD0242060437E
:109450006D49096840184068C119242060436A4A70
:1094600012688018416000BFC1E710B5112000F0FC
:10947000EAFB10BD10B5142000F0E5FB10BD70B57F
:10948000044663480068002813D0614AE169A06976
:1094900012689047054600BF2E46002E07D000BF39
:1094A0005CA2FF2164313046FCF73EFF00BF00BFE5
:1094B00002E0A169E069884770BDF8B553480068CB
:1094C000401C00283AD0002700F0F6FB04464D4827
:1094D0000168204600F0F3FB06464C48056811E0A1
:1094E000242068434849096844186068B04200D99C
:1094F0000BE06068361A6068C719256A2046FFF7D6
:10950000BEFF00BF681C0028EAD100BF44480078B5
:1095100044490978884209D142480078401CC0B2C9
:1095200040490870022801D1002008703D480078A9
:1095300080003D490F50FFF79DFF00BFF8BD014679
:1095400037480078374A127890421DD03448007866
:10955000401C334A107010460078022801D10020C8
:1095600010702F48007880002F4A10580860254A54
:10957000086812688018234A1060104600680002CC
:10958000000A1060012070470020086000BFFAE761
:10959000FEB51E480068019024480078009064E001
:1095A0000098C000224909684418257859E018201D
:1095B000684361680F18681CC5B2A078A84200D142
:1095C00000253878022802D0032847D132E0242130
:1095D000786848430C4909684618307D002804D053
:1095E0007868FFF7EDFE0020307538E01CED00E0F4
:1095F00000E100E00015014040130140001001406F
:10960000D0200020BC200020AC200020B82000206A
:10961000CC2000206170705F74696D65722E6300EC
:10962000C8200020C9200020C0200020B020002039
:10963000B42000200CE0F849096824225143F74A7D
:109640001268881800210175F34A016A116000BF91
:10965000F1480068401C0028EDD100E000BF00BFC9
:1096600000BF6078A842A2D100BF0098411EC9B2D5
:109670000091002894D1E84801680198814201D006
:109680000120FEBD0020FCE7F0B50346002426E0E3
:10969000E14E366824277E43E04F3F68F019466864
:1096A0009E4203D94668F61A46601DE046689B1B39
:1096B00046683419002646600675D74E3568D64F81
:1096C000066A3E600669002E08D00E193602360A78
:1096D00086600669C66016680662156000BFCE48DF
:1096E0000068401C0028D3D100BFF0BDFEB507467E
:1096F000C94800680290CA48007801906BE0019860
:10970000C000C849096845185DE0781C002807D0EA
:109710003E4624207043C14909684418276A23E063
:109720002978182359436A6850182978491C2970E8
:109730002978AA78914201D1002129704668242114
:109740007143B64A12688C180178012902D1217D33
:10975000002900D037E08168A160C168E16001693B
:1097600021614169E16100BFAF49A0680968401A01
:109770000002000AAD49884208D2AB49A0680968D6
:1097800000F09DFAE1684018606011E0A648A16809
:10979000006800F094FA0090E1680098814204D9D2
:1097A000E1680098081A606001E00020606000BF76
:1097B0000020A060E06001202075801E20623046FD
:1097C000FFF794FD00BF781C00289ED128786978A7
:1097D00088429AD100BF0198411EC9B20191002868
:1097E0008DD18D4801680298814201D00120FEBDD3
:1097F0000020FCE7FEB588480068401C002834D0F3
:109800008548006824214843844909684018456810
:1098100000F052FA0190844804682146019800F053
:109820004EFAC61C82480078002801D1FFF724FDBB
:10983000AE4201D2284600E0304604192402240A30
:1098400020467C49086000BF00F036FA009001997C
:10985000009800F034FAC71C2046019900F02FFA56
:10986000874201D9FFF701FE01E0FFF71DFDFEBDB4
:10987000FEB50020C04301906B4804686648076845
:109880006846FFF75CFE0546FFF782FE0646002DA0
:1098900005D001AA21460098FFF7F6FE012601989F
:1098A000FFF724FF002800D00126002E02D0384602
:1098B000FFF7A0FFFEBD4170704770B502460B4632
:1098C0005078411C9078884200D10021107888425D
:1098D00001D1002070BD196050781826704355687A
:1098E0002C182046F6E7FFB581B005460E46174610
:1098F000E9004C4A126888186946FFF7DEFF044603
:10990000002C02D1042005B0F0BD0120207066605B
:1099100000F0D2F9A060E760049820610A986061C5
:10992000E900404A126888180099FFF7C4FFFFF762
:10993000A1FD0020E7E7F8B504460E46E100394AEC
:10994000126888186946FFF7B8FF0546002D01D157
:109950000420F8BD022028706E60E100314A1268D0
:1099600088180099FFF7A7FFFFF784FD0020F0E7B4
:1099700038B50446E1002B4A126888186946FFF79B
:109980009CFF0546002D01D1042038BD032028701E
:10999000001F6860E100234A126888180099FFF7E9
:1099A0008AFFFFF767FD0020EFE710B5002022498E
:1099B00008600021204841608160C16000201E498C
:1099C000403908604860FFF778FD10BD10B5FFF71B
:1099D0004FFF10BDFFB581B00E4617461C4620460E
:1099E0008107890F002901D1012100E00021002910
:1099F00002D1072005B0F0BD002C01D10720F9E706
:109A0000FFF752FC0D490A9808600D48067003489C
:109A10000460002523E00000B8200020AC200020D6
:109A2000B0200020B4200020BC200020FFFF7F00D9
:109A3000D02000204015014040110140CC200020E2
:109A4000A82000200021242068439F4A1268115456
:109A5000242068439C4A1268801801756D1CB54229
:109A6000F0DB2420704304190320984908709848BB
:109A70000460183400250CE0E900954A1268881843
:109A800000210170417087704460182179430C19DE
:109A90006D1C032DF0DB0020C0438E4908600020C0
:109AA0008D4908708D490870142000F0D3F8032107
:109AB0001420FFF7A1FB142000F0BEF80198FFF777
:109AC000D2FB00F0F9F886490860002092E770B5F3
:109AD00003460C467C480068002801D1082070BD70
:109AE000002A01D10720FAE7002B01D10720F6E771
:109AF00000211CE024204843734D2D68285C002879
:109B000014D10125242048436F4E36683554242053
:109B100048436D4D2D6840194470242048436A4DD8
:109B20002D684019826119600020D8E7491C6D48F2
:109B300000788142DEDB0420D1E710B500F092F816
:109B4000012802D0032804D101E0002403E001240D
:109B500001E0022400BF00BF204610BDFEB5044650
:109B60000D46164658480068002801D10820FEBD61
:109B70005C480078844201D2052D01D20720F6E727
:109B80002420604350490968085C012801D008205E
:109B9000EDE7242060434C490968401840780128CB
:109BA00001D1284600E000200746FFF7C6FF3B46EC
:109BB0002A46214600960190FFF795FED7E770B53B
:109BC000044641480068002801D1082070BD45487E
:109BD0000078844201D30720F8E7242060433A4903
:109BE0000968085C012801D00820EFE7FFF7A5FF0E
:109BF00005462146FFF79FFEE8E710B532480068AA
:109C0000002801D1082010BDFFF797FF0446FFF799
:109C1000AFFEF8E710B5044600F04EF820600020D3
:109C200010BD70B505460E4614463146284600F074
:109C300046F82060002070BDC206D20E012191407E
:109C4000294A11607047C206D20E01219140274A6D
:109C500011607047C206D20E01219140234A803222
:109C60001160704710B522484068C105C90D002930
:109C700020D00A46103A50B200280DDA1C4B1C3393
:109C80000407240F083CA408A4001B598407E40E11
:109C9000E3401B069B0F0BE0134B032424021B190C
:109CA0008408A4001B598407E40EE3401B069B0FA5
:109CB000D8B210BD0420FCE70E4840687047024649
:109CC000501A0002000A7047AC200020B02000208B
:109CD000B4200020B8200020C8200020C920002087
:109CE000BC200020A820002000E100E000E200E00D
:109CF00000ED00E00015014001464888B74A12888F
:109D0000904206DB4888B54A5288904201DC012027
:109D100070470020FCE738B50546B1480088B149D6
:109D200088423BD0B0480078401CAF490870AF482B
:109D3000007B097888420FDBA849A948008875DFB5
:109D40000446002C07D0A9488069002803D0A74802
:109D500081692046884721E00020A3490870A34874
:109D6000007C00280FD03B219D48008876DF044608
:109D7000002C07D09D488069002803D09B4881694A
:109D80002046884700BF99484069002806D0002037
:109D90000090964841696846884700BF38BD70B555
:109DA00005461C2229469148FCF704FA00209049F8
:109DB0000870286800280BD008228848296800F01D
:109DC00083FD86487ADF0446002C08D0204670BD0B
:109DD00082487BDF0446002C01D02046F7E70020B4
:109DE000C0437F49088000207F490870814A0021D4
:109DF0008148FFF76CFEEAE710B57F480068FFF77F
:109E0000DEFE10BD38B57D48FFF776FF002829D16A
:109E10007748007800280AD074484069002820D08C
:109E200000200090714841696846884719E06E48F3
:109E30000078002802D16D48456801E06B488568CC
:109E4000002229466C480068FFF788FE0446002C73
:109E500007D066488069002803D06448816920469D
:109E600088470AE061484069002806D00120009038
:109E70005E4841696846884700BF00205C49087019
:109E800038BD10B50446A0885549088008222146EF
:109E90000E315A4800F018FD00205349087053480D
:109EA000C089002801D1FFF7ADFF10BD70B5054690
:109EB0000020C0434A49088000204B4908704E48A2
:109EC0000068FFF77CFE0446002C07D047488069F5
:109ED000002803D0454881692046884770BD70B589
:109EE0000546AC1D20884149C989884220D1208B74
:109EF00002281DD100BF00BFA17EE27E12021143E5
:109F00000846C107C90F002902D0FFF77BFF0FE009
:109F100039480068FFF753FE0646002E07D0334845
:109F20008069002803D0314881693046884700BFE6
:109F300070BD10B504460822A11D304800F0C4FCD5
:109F4000FFF760FF10BD10B504462088102806D02A
:109F5000112808D012280ED0502810D107E0204632
:109F6000FFF78FFF0CE02046FFF7A0FF08E0204638
:109F7000FFF7B5FF04E02046FFF7DBFF00E000BF7E
:109F800000BF10BD38B5044608222146134800F032
:109F90009BFC12487ADF0546002D1CD11748FFF7BD
:109FA000ABFE00280BD10120114908700B490C4869
:109FB000008875DF054601200B4908700BE00B484F
:109FC0004069002806D00120009008484169684691
:109FD000884700BF0025284638BD0000D420002057
:109FE000DE200020FFFF0000DC200020742800207D
:109FF000EC200020179D0100E8200020E020002038
:10A0000070B506460C46154629462046FCF7F1F980
:10A0100070BDF8B55A480078002800D1F8BD5948FD
:10A020000068002801D1012000E0002005465648C4
:10A030000068002801D1012000E00020064600BF92
:10A04000002D14D1684651DF0446052C01D10125AD
:10A050000CE0002C06D000BF4CA269212046FCF782
:10A0600063F903E0474900980968884700BF002E5C
:10A070001AD14C480088009069464B48006861DF5F
:10A080000446052C01D101260DE0002C06D000BFAE
:10A090003EA280212046FCF747F904E042480068D0
:10A0A00039490968884700BF002D02D0002E00D032
:10A0B00000E0C5E700BF00BFB0E7FFB581B00C46C8
:10A0C00016461F46002C02D1072005B0F0BD2046E1
:10A0D0008107890F002901D1012100E00021002919
:10A0E00001D10720F1E7304804602E4806802F4850
:10A0F00007602F49019810DF0546002D01D0284642
:10A10000E3E701201E490870162026DFDDE710B5C1
:10A1100011DF0446002C01D0012000E00020184986
:10A120000870204610BD0146002901D10E2070475D
:10A13000154801600020FAE70146002901D10E20F0
:10A140007047104801600020FAE770B517480068B2
:10A15000002811D0154800688047044600BF2546F6
:10A16000002D07D000BF09A2FF2133312846FCF79C
:10A17000DBF800BF00BF01E0FFF74BFF70BD000040
:10A18000FA20002000210020FC200020736F66745C
:10A190006465766963655F68616E646C65722E6381
:10A1A00000000000F8200020F4200020F020002013
:10A1B00001A00100F8B504460D469048006800284B
:10A1C00013D0EAB221788D4B60681B689847064629
:10A1D00000BF3746002F06D000BF89A2282138468D
:10A1E000FCF7A2F800BF00BF0CE0012D04D12078DD
:10A1F00001216268904705E0002D03D120780021FD
:10A2000062689047F8BDF8B507466946804800780F
:10A2100000F0DFFA0646002E00D0F8BD002534E03D
:10A22000E8007C49096844187B48006822780121CD
:10A230009140084000280FD0606800280CD060785A
:10A24000012804D100212046FFF7B4FF1BE00121C3
:10A250002046FFF7AFFF16E06F48406822780121E3
:10A260009140084000280ED0606800280BD060782C
:10A27000012804D101212046FFF79CFF03E00021C3
:10A280002046FFF797FF681CC5B2644800788542F6
:10A29000C6DB00BFC1E770B504460D4660480068E4
:10A2A000FFF78DFC0646002E00D070BD5A48446072
:10A2B00005602046284302465A480168584800680D
:10A2C000FFF74CFC064600BFEFE7FFB583B006463C
:10A2D0000C461746052F02D2072007B0F0BD4D48A7
:10A2E00006604E4804704F4807604449069808606D
:10A2F000002515E0E100881902780092817801912B
:10A30000019989000522120707231B02D318009A1E
:10A310009200995000BF0278012191400D4300BF87
:10A320002046611ECCB20028E4D13F4B2A46294684
:10A33000374800F077F902900298002801D002987F
:10A34000CBE73A4A00213648FFF7C1FBC5E710B515
:10A3500030480068002801D1082010BD2C48007842
:10A3600000F0A5F9F9E710B52A480068002801D1E6
:10A37000082010BD2648007800F00AFA0446002C98
:10A3800001D02046F5E726480068FFF718FCF0E703
:10A39000F8B505460C46E8001E49096847181D48EF
:10A3A0000068002801D10820F8BD694618480078E7
:10A3B00000F00FFA0646002E01D03046F4E7787818
:10A3C00000280BD10098E840C007C00F002802D039
:10A3D0000020207010E0012020700DE07878012826
:10A3E0000AD10098E840C007C00F002802D0012021
:10A3F000207001E0002020700020D5E7102100200F
:10A400006170705F627574746F6E2E63000000007F
:10A4100014210020042100201C21002008210020FC
:10A42000182100200C21002097A2010007A20100A2
:10A43000F0B502460C46002037E001238340194660
:10A4400023460B40002B2FD0D5680D40002D05D1A1
:10A4500001235B04D5680D43D56004E003231B048E
:10A46000D5688D43D56005252D0707263602AD1921
:10A470008600AD5903263604B5430526360707275F
:10A480003F02F6198700F55105252D0707263602EC
:10A49000AD198600AD591D430526360707273F0233
:10A4A000F6198700F55100BF401C2028C5D3F0BD28
:10A4B000F0B585B0EF4805690020EF49C863002674
:10A4C0003FE014207043ED49096844180120B04072
:10A4D000EB4909680840002831D0E068C043684073
:10A4E00021680840074639462046FFF7A1FFE148AA
:10A4F000006968400390039800280ED00398054334
:10A50000E068C043684021680840009020460099F8
:10A51000FFF78EFF0098074300BFA068A8433840AC
:10A5200001906068284038400290019902980843E1
:10A53000002803D0226901990298904700BF701C3F
:10A54000C6B2D04800788642BBDB05B0F0BD10B57E
:10A550000146002029E014224A43C84B1B689A5840
:10A56000012383401A40002A1ED005221207072328
:10A570001B02D2188300D25803231B049A430523DD
:10A580001B07072424021B1984001A5105221207F5
:10A5900007231B02D2188300D25805231B07072468
:10A5A00024021B1984001A51401C2028D3D310BD4B
:10A5B00070B505460C46002C01D1072070BD204621
:10A5C0008107890F002901D1012100E00021002924
:10A5D00001D10720F2E7A9480460AB4805700020CC
:10A5E000A8490870A6490860A7480078142250437B
:10A5F0000146A248006800F0C6F90020C043A34904
:10A600008860062001218140A14A116000BF01211C
:10A6100000F0F9F80620012181409E4A116000BF38
:10A620000020CBE7F8B504460D4616461F46934872
:10A630000068002801D10820F8BD002F01D10720B3
:10A64000FAE79048007890490978884201DB0420B5
:10A65000F2E7284630438B49097814225143874A50
:10A66000126850508748007814214843834909688C
:10A670004018456083480078142148437F490968A1
:10A68000401886607F480078142148437B49096858
:10A69000401807617B48007820707A480078401C99
:10A6A000784908702078FFF752FF0020C4E7F0B522
:10A6B000024672480068002801D10820F0BD7148A8
:10A6C0000078824201DB0720F8E700206A4BD8635C
:10A6D000684804696A480068002802D158066B4B34
:10A6E000586001209040664B1B681843644B18600B
:10A6F000002314205043614D2D684019C360002190
:10A7000042E001238B401846142353435B4D2D68D0
:10A71000EB580340002B36D025460540002D02D0D3
:10A7200003231B040EE001235B0414255543534E01
:10A730003668AD19ED680543142656434F4F3F6800
:10A74000F619F56005252D0707263602AD198E008E
:10A75000AD5903263604B5430526360707273F02C1
:10A76000F6198F00F55105252D0707263602AD197C
:10A770008E00AD591D430526360707273F02F619FF
:10A780008F00F55100BF491C2029BAD3002095E75E
:10A7900010B5044639480068002801D1082010BDD2
:10A7A00038480078844201DB0720F8E72046FFF7AD
:10A7B000CEFE0120A0403249096881433048016043
:10A7C0000068002803D10120C007304988600020BC
:10A7D000E5E710B5024629480068002801D10820A5
:10A7E00010BD28480078824201DB0720F8E71420DA
:10A7F0005043224C246803191E4800691C682040FD
:10A8000008600020ECE710B5002819DA224A030797
:10A810001B0F083B9B089B00D2588307DC0EFF23CD
:10A82000A3409A438B071B0E8407E40EA3401A43F0
:10A83000194B0407240F083CA408A4001A5118E07F
:10A84000144A03231B02D21883089B00D2588307A3
:10A85000DC0EFF23A3409A438B071B0E8407E40EF4
:10A86000A3401A430B4B032424021B198408A400A1
:10A870001A5110BD00050050406100402C210020FD
:10A8800024210020292100202821002000630040ED
:10A8900080E200E000E100E01CED00E070B500F0B7
:10A8A00060FB0123044600221B07C01A914101D31B
:10A8B000002070BD204600F05FF9050002D021465F
:10A8C00000F05FF8284670BDF8B5042A2CD3830742
:10A8D00012D00B78491C0370401C521E83070BD00A
:10A8E0000B78491C0370401C521E830704D00B7860
:10A8F000491C0370401C521E8B079B0F05D0C91AC0
:10A90000DF002023DE1B08C90AE0FBF753FCF8BD7B
:10A910001D4608C9FD401C46B4402C4310C0121F00
:10A92000042AF5D2F308C91A521EF0D40B78491C38
:10A930000370401C521EEAD40B78491C0370401C63
:10A94000012AE4D409780170F8BD01E004C0091FB0
:10A950000429FBD28B0701D50280801CC90700D0D7
:10A960000270704700290BD0C30702D00270401C50
:10A97000491E022904D3830702D50280801C891E48
:10A98000E3E70022EEE70022DFE7002203098B4223
:10A990002CD3030A8B4211D300239C464EE003467E
:10A9A0000B433CD4002243088B4231D303098B4232
:10A9B0001CD3030A8B4201D394463FE0C3098B4268
:10A9C00001D3CB01C01A524183098B4201D38B01C1
:10A9D000C01A524143098B4201D34B01C01A524164
:10A9E00003098B4201D30B01C01A5241C3088B42A9
:10A9F00001D3CB00C01A524183088B4201D38B0094
:10AA0000C01A524143088B4201D34B00C01A524135
:10AA1000411A00D201465241104670475DE0CA0F0C
:10AA200000D04942031000D34042534000229C46CC
:10AA300003098B422DD3030A8B4212D3FC228901D6
:10AA400012BA030A8B420CD3890192118B4208D3AC
:10AA5000890192118B4204D389013AD0921100E00E
:10AA60008909C3098B4201D3CB01C01A5241830922
:10AA70008B4201D38B01C01A524143098B4201D34F
:10AA80004B01C01A524103098B4201D30B01C01A7A
:10AA90005241C3088B4201D3CB00C01A52418308F4
:10AAA0008B4201D38B00C01A5241D9D243088B424A
:10AAB00001D34B00C01A5241411A00D201466346ED
:10AAC00052415B10104601D34042002B00D5494251
:10AAD000704763465B1000D3404201B50020C0467A
:10AAE000C04602BD7047704770470102C21504D0CE
:10AAF0000123DB071943002A0ADB9E239A1A02D49A
:10AB00000846D0407047FF2241001206914201D909
:10AB100000207047C017C04370471F22030C02D1AA
:10AB20000F2200041CD0030E01D10002083A030FCB
:10AB300001D10001121F830F01D18000921E002855
:10AB400001DB4000521ED205511802125118192281
:10AB5000904004D3491C002801D149084900084607
:10AB60007047C10FC90700D040420122920711432C
:10AB7000D3E701218907D0E770B5064600F060F8F9
:10AB8000056830460B30C408E400B44201D8002008
:10AB900070BD68682A46002818D00168A14211D308
:10ABA0000B46214608318B4208D3436801194B609C
:10ABB00003681B1B0B605160046001E04168516039
:10ABC000001D70BD024640680028E6D12146284697
:10ABD00000F03EF80028DCD170BD000010B5FF2366
:10ABE0001B0644009C421DD84C009C421AD80346C8
:10ABF000124A0B4307D4401A02D3EFF3008010BD72
:10AC0000EFF3008010BD081A06D2EFF30080012197
:10AC10009043C907084302E0EFF30080904380F3BC
:10AC2000008810BD0D231B041A4204D011460020D9
:10AC300000F07EF810BD00F093F810BD0000009009
:10AC40000048704798280020704770477047704749
:10AC500038B504460A4600206946C046C04600286A
:10AC600005D002462046009900F0A5F8012038BD25
:10AC700010B5012000F0BFF810BDF8B5C046C046C1
:10AC8000054600200C461020C0460646A819A042E2
:10AC90000DD9324669460020C046C046070001D1A2
:10ACA00000F0A9F80098A04200D00546C419FFF7AB
:10ACB000C7FFF61D07460560F008C0004619284684
:10ACC00000F008F8B44204D031463868A21B00F006
:10ACD00072F8F8BD0021016041608060704710206B
:10ACE000704770B50446051FFFF7AAFF0068002CE7
:10ACF0001AD0446801E020466468002C01D0AC42C0
:10AD0000F9D301680A18AA4204D12A6805468918AD
:10AD1000016000E0456028684119A14205D16168E1
:10AD2000696021684018286070BD6C6070BD0000CB
:10AD3000CA0211D54A03520F002A04D0C803C043E7
:10AD4000012188407047054AEFF30081080100099E
:10AD5000104380F3008870470020704700000030E7
:10AD600010B5024800F04DF810BD00000000C07F93
:10AD700000487047902800207546FFF7F9FFAE465F
:10AD8000050069465346C008C000854618B020B586
:10AD9000FBF740FA60BC00274908B6460026C0C54C
:10ADA000C0C5C0C5C0C5C0C5C0C5C0C5C0C5403D83
:10ADB00049008D46704710B50346406801E00346E0
:10ADC0004068002801D08842F9D31868C3188B4224
:10ADD00006D0CB1CD808C000001D411A521A0146EB
:10ADE000081D0A60FFF77DFF10BD0446C046C0463F
:10ADF0002046FBF798F910B500F03AF800F031F86A
:10AE000010BD10B50C461107090F092904D00A29F5
:10AE10000AD008290CD104E011460820FFF788FF6A
:10AE200006E0510606D501E0510601D50120C00714
:10AE3000214610BDD10607D501010909CC084907F3
:10AE4000000E0006044309E0410F20024907000AF2
:10AE50000143200E00061D22D14101430846E7E7C9
:10AE6000704710B5002801D000F02AF810BD00008E
:10AE700010B5012805D0002103A000F027F801201B
:10AE800010BD09A1F8E7000053494752544D454D04
:10AE90003A204F7574206F662068656170206D657B
:10AEA0006D6F7279000000003A2048656170206D76
:10AEB000656D6F727920636F72727570746564006E
:10AEC00001491820ABBEFEE72600020070B505461A
:10AED0000C460A2000E06D1C00F012F8002D06D090
:10AEE00028780028F7D102E0641C00F009F8002C53
:10AEF00002D020780028F7D10A2000F001F870BDB8
:10AF000008B5694608700320ABBE08BD70B58C1843
:10AF10000578401C6B075B0F01D10378401C2A1198
:10AF200006D10278401C03E00678401C0E70491CD4
:10AF30005B1EF9D12B0705D40023521E0DD40B70D4
:10AF4000491CFAE70378401CCB1A921C03E01D78D9
:10AF50000D70491C5B1C521EF9D5A142D8D30020AC
:10AF600070BDF0B4040C8BB2264682B25E4310462C
:10AF700058430D0C370C36040021801916467941D0
:10AF80006E43370C36048019264679416E43891981
:10AF9000F0BC704730B47446641E2578641CAB4224
:10AFA00004D3635D5B00E31830BC18471D46F8E727
:10AFB00070B501250400ED074C4020D4441A01D29D
:10AFC000001B0919C60D4B00F2B2FF2A29D01B0E37
:10AFD0002CD000020C02D31A2C43DC402843051964
:10AFE00010D2280A02D3401C6D0611D0761EF60539
:10AFF0008019FF2A00DA70BDC00DC00570BD694020
:10B0000000F0A4F801200543C541521C761CE8E776
:10B0100064089C40C90161408900E7D10124A04334
:10B02000E4E71B0E440200D0034870BD002AFCD1A7
:10B03000C00FC00770BD00BF0000C07F0123020029
:10B04000DB050A430DD4DA4203D49A4207D488427E
:10B050007047D84214D4D94212D4884270478042F3
:10B060007047DA4203D59A42F9D5814270475B00B6
:10B070004200DA4204D24A00DA4201D281427047E9
:10B0800010B5024AFFF7AAFD10BD00BF0900160463
:10B0900070B5420064414B005C41120E39D01B0E6A
:10B0A00038D0FF2A3CD0FF2B3AD040024902400A58
:10B0B000490A060045184E43000A090AD2184843B7
:10B0C000ED017F3A0104731A4019190C4318990FC6
:10B0D00004D001215B0849075B1A521CD80904D32C
:10B0E000401CF50301D19D0607D0FF2A08D2D505E3
:10B0F00006D0E4072043401970BD0125A843F4E7BA
:10B10000002A01DCE00770BD2402FF202043C005B7
:10B1100070BD1B0EFF2A03D0FF2B01D0E00770BDCE
:10B12000FF2645003606B54206D84D00B54203D885
:10B13000D218FF2A00D0E7E7004870BD0000C07FAA
:10B1400070B501250400ED074C4022D4441A02D208
:10B150006C40001B0919C60D4B00F2B2FF2A4BD000
:10B160001B0E50D000020C02D31A2C43DC40A84323
:10B17000051B05D5AD0019D36D08761E521E37D0BC
:10B18000F605280A01D2801970BD70416D0603D002
:10B1900070BD6940FFF712FF9C4009026140490001
:10B1A00001D0401E70BD0124A04370BD6D081DD0AC
:10B1B00001202B0C01D12D0410302B0E01D12D02BA
:10B1C00008302B0F01D12D01001DAB0F01D1AD00B7
:10B1D000801CEB0F01D16D00401C6D00361A121A55
:10B1E000680AF5054019012A02DB70BD002070BD18
:10B1F000C036300AC00770BD1B0E440201D1FF2BC0
:10B2000000D1024870BD002AF0D070BD0000C07FA0
:10B21000F80000002315000023D1BCEA5F78231555
:10B22000DEEF121200000000000102033CB2010038
:10B2300000200020300100000CAF0100117324F445
:10B2400043FFFF021F01121052031A1108CB9D6920
:10B250002E10113632350D0A496E697420656E6400
:10B260000D0A76222612762A360512342A04077A27
:0CB2700032117A31052A3E0502A82400A4
:04000005000160C1D5
:00000001FF
